:100000000C9446000C9465000C9465000C946500FB
:100010000C9465000C9465000C9465000C946500CC
:100020000C9465000C9465000C9465000C946500BC
:100030000C9465000C94A3000C9465000C9465006E
:100040000C9465000C9465000C9465000C9465009C
:100050000C9465000C9465000C9465000C9465008C
:100060000C9465000C9465000C9465000C9465007C
:100070000C9465000C9465000C9465000C9465006C
:100080000C9465000C9465000C94650011241FBE4F
:10009000CFEFD0E4DEBFCDBF11E0A0E0B1E0E6ECF1
:1000A000F2E000E00BBF02C007900D92A231B10751
:1000B000D9F721E0A2E1B1E001C01D92AA31B20757
:1000C000E1F70E9444010C9461010C940000CF936D
:1000D000C82F8A3019F48DE00E9467008091C0001B
:1000E00085FFFCCFC093C60080E090E0CF910895DB
:1000F0008BE0809381008DE790E09093890080935E
:10010000880082E080936F00109285001092840036
:100110008091000190910101A0910201B091030131
:100120008093120190931301A0931401B0931501D1
:100130008FB780688FBF089510928100089581E085
:100140008093160108951F920F920FB60F921124FB
:100150000BB60F922F933F934F935F936F937F93C1
:100160008F939F93AF93BF93EF93FF93809112016F
:1001700090911301A0911401B09115010197A1096B
:10018000B1098093120190931301A0931401B093CD
:100190001501892B8A2B8B2B91F40E949F00809153
:1001A000000190910101A0910201B091030180939F
:1001B000120190931301A0931401B0931501FF91C4
:1001C000EF91BF91AF919F918F917F916F915F91CF
:1001D0004F913F912F910F900BBE0F900FBE0F903C
:1001E0001F901895609300017093010180930201A4
:1001F0009093030160931201709313018093140193
:100200009093150108958091170190911801813004
:10021000910571F030F08230910589F00397B1F0CB
:100220001BC081E090E0909318018093170114C0E7
:1002300082E090E090931801809317010DC083E055
:1002400090E0909318018093170106C081E090E040
:1002500090931801809317018091170190911801D4
:100260008230910549F08330910551F0019759F49E
:1002700081E080931901089582E080931901089527
:1002800084E08093190108958FEF84B915B868EE62
:1002900073E080E090E00E94F2000E9478001092EB
:1002A000190110921801109217010E940301809108
:1002B00016018823E1F3109216018091190185B986
:0602C000F4CFF894FFCF1B
:1002C60001000000000000020000000067000000BE
:0202D600000026
:00000001FF
