:100000000C9453000C9472000C9472000C947200C7
:100010000C9472000C9472000C9472000C94720098
:100020000C9472000C9472000C9472000C94720088
:100030000C9472000C9472000C9472000C94720078
:100040000C9472000C9472000C9472000C94720068
:100050000C9472000C9472000C9472000C94720058
:100060000C9472000C9472000C9472000C94720048
:100070000C9472000C9472000C9472000C94720038
:100080000C9472000C9472000C9472009100980011
:100090005E01AA00BC00CE00E000F20004011601DF
:1000A00028013A014C0111241FBECFEFD0E4DEBF7E
:1000B000CDBF11E0A0E0B1E0E6E8F3E000E00BBF67
:1000C00002C007900D92AE30B107D9F721E0AEE043
:1000D000B1E001C01D92A231B207E1F70E949E017A
:1000E0000C94C1010C940000CF93C82F8A3019F4EE
:1000F0008DE00E9474008091C00085FFFCCFC0930A
:10010000C60080E090E0CF910895E0910F01F0915A
:100110001001ED30F10508F0E2C0EA5BFF4F0C94EE
:10012000B80181E090E09093100180930F01D7C057
:1001300080910E01882339F083E090E090931001C4
:1001400080930F01CCC081E090E0909310018093E8
:100150000F01C5C080910E01882339F083E090E043
:100160009093100180930F01BAC084E090E09093C7
:10017000100180930F01B3C080910E01882339F0E4
:1001800085E090E09093100180930F01A8C084E077
:1001900090E09093100180930F01A1C080910E0117
:1001A000882339F085E090E09093100180930F014F
:1001B00096C086E090E09093100180930F018FC06D
:1001C00080910E01882339F087E090E09093100130
:1001D00080930F0184C086E090E09093100180939B
:1001E0000F017DC080910E01882339F087E090E0F7
:1001F0009093100180930F0172C088E090E090937B
:10020000100180930F016BC080910E01882339F09B
:1002100089E090E09093100180930F0160C088E026
:1002200090E09093100180930F0159C080910E01CE
:10023000882339F089E090E09093100180930F01BA
:100240004EC08AE090E09093100180930F0147C068
:1002500080910E01882339F08BE090E0909310019B
:1002600080930F013CC08AE090E09093100180934E
:100270000F0135C080910E01882339F08BE090E0AA
:100280009093100180930F012AC08CE090E090932E
:10029000100180930F0123C080910E01882339F053
:1002A00082E090E09093100180930F0118C08CE0E1
:1002B00090E09093100180930F0111C080910E0186
:1002C000882339F082E090E09093100180930F0131
:1002D00006C081E090E09093100180930F0180911F
:1002E0000F019091100185309105A1F030F482301A
:1002F000910501F1039751F008958930910591F02E
:100300008B30910599F00797C1F408C08AEA809371
:10031000110108958CE080931101089582E180938A
:100320001101089581E28093110108958FEF809368
:100330001101089585E580931101089511B88FEF9B
:1003400082B987B918B810920E0185E58093110122
:100350001092100110920F0190B181E089278170F5
:1003600080930E010E9485008091110188B9F4CF1D
:10037000EE0FFF1F0024001C0BBE0790F691E02D2E
:060380000994F894FFCF80
:0E0386000000000200000000740000000000F3
:00000001FF
