:100000000C9446000C9465000C9465000C946500FB
:100010000C9465000C9465000C9465000C946500CC
:100020000C9465000C9465000C9465000C946500BC
:100030000C9465000C9465000C9465000C946500AC
:100040000C9465000C9465000C9465000C9465009C
:100050000C9465000C9465000C9465000C9465008C
:100060000C9465000C9465000C9465000C9465007C
:100070000C9465000C9465000C9465000C9465006C
:100080000C9465000C9465000C94650011241FBE4F
:10009000CFEFD0E4DEBFCDBF11E0A0E0B1E0E4EEF1
:1000A000F1E000E00BBF02C007900D92AE30B10747
:1000B000D9F721E0AEE0B1E001C01D92A031B20756
:1000C000E1F70E94DC000C94F0000C940000CF9348
:1000D000C82F8A3019F48DE00E9467008091C0001B
:1000E00085FFFCCFC093C60080E090E0CF910895DB
:1000F000EAE7F0E08081806E8083089520910E0110
:1001000030E08217930718F08FEF85B9089560915A
:100110000F01262F30E0A901440F551F440F551F32
:10012000440F551F421B530B8417950718F08FE798
:1001300085B90895A901440F551F420F531F440F5D
:10014000551F8417950718F08FE385B90895A90105
:10015000440F551F440F551F420F531F8417950717
:1001600018F08FE185B90895A901440F551F440F78
:10017000551F8417950718F08FE085B90895A901D8
:10018000440F551F420F531F8417950718F087E03F
:1001900085B90895220F331F8217930718F083E063
:1001A00085B90895262F30E08217930718F081E073
:1001B00085B9089515B808958FEF84B915B88AB92F
:1001C0001BB88FE780930E018FE080930F010E9490
:1001D000780080917800909179000E947E00F9CF9C
:0401E000F894FFCFC1
:0E01E4000000000200000000670000000000A4
:00000001FF
