:100000000C9446000C9465000C9465000C946500FB
:100010000C9465000C9465000C9465000C946500CC
:100020000C9465000C9465000C9465000C946500BC
:100030000C9465000C941C010C9465000C946500F4
:100040000C9465000C9465000C9465000C9465009C
:100050000C9465000C9465000C9465000C9465008C
:100060000C9465000C9465000C9465000C9465007C
:100070000C9465000C9465000C9465000C9465006C
:100080000C9465000C9465000C94650011241FBE4F
:10009000CFEFD0E4DEBFCDBF11E0A0E0B1E0ECEEE9
:1000A000F4E000E00BBF02C007900D92A032B10750
:1000B000D9F721E0A0E2B1E001C01D92AB32B20756
:1000C000E1F70E9446020C9474020C94000040E098
:1000D00050E00CC000002F5F3F4F02C020E030E036
:1000E000273063E03607B4F34F5F5F4F4817590777
:1000F000ACF308959BB19F7B9BB988B98BB18068A5
:100100008BB900008BB18F778BB982E090E00E94B1
:100110006700089581E00E947A000895813120F4FB
:1001200081580E947A00089581550E947A000895AE
:1001300084E690E00E94670088E30E947A0086E0EF
:100140000E947A008FE00E947A0081E00E947A008B
:100150008AE090E00E94670008959BB190649BB98B
:1001600088B98BB180688BB900008BB18F778BB960
:1001700081E090E00E9467000895EF92FF920F9354
:100180001F93CF93DF93182FEB010E948A000EC0BC
:1001900001E0010F812F0E948E007E018FEFE81A8F
:1001A000F80A88810E94AD00102FE7018881811133
:1001B000EFCFDF91CF911F910F91FF90EF900895B6
:1001C000CF93C82F8A3019F48DE00E94E00080910F
:1001D000C00085FFFCCFC093C60080E090E0CF91C7
:1001E00008958BE0809381008DE790E090938900E3
:1001F0008093880082E080936F00109285001092B7
:1002000084008091040190910501A0910601B091B4
:1002100007018093200190932101A0932201B093C4
:1002200023018FB780688FBF0895109281000895D1
:1002300081E08093240108951F920F920FB60F92D0
:1002400011240BB60F922F933F934F935F936F93AD
:100250007F938F939F93AF93BF93EF93FF9380917F
:10026000200190912101A0912201B09123010197D9
:10027000A109B1098093200190932101A09322014B
:10028000B0932301892B8A2B8B2B91F40E941801A8
:100290008091040190910501A0910601B0910701A0
:1002A0008093200190932101A0932201B093230118
:1002B000FF91EF91BF91AF919F918F917F916F913E
:1002C0005F914F913F912F910F900BBE0F900FBEFA
:1002D0000F901F901895609304017093050180930F
:1002E0000601909307016093200170932101809390
:1002F000220190932301089590B181E089278170B4
:1003000080932A0120912501309126012230310568
:1003100041F138F42115310569F02130310589F0BA
:100320005FC024303105E9F160F12530310509F471
:1003300048C056C081E090E090932601809325014B
:100340004FC0813039F482E090E090932601809391
:10035000250146C081E090E090932601809325011D
:100360003FC0813039F483E090E090932601809380
:10037000250136C084E090E090932601809325010A
:100380002FC0813039F483E090E090932601809370
:10039000250126C084E090E09093260180932501FA
:1003A0001FC0813039F485E090E09093260180935E
:1003B000250116C084E090E09093260180932501EA
:1003C0000FC0813039F485E090E09093260180934E
:1003D000250106C081E090E09093260180932501DD
:1003E000809125019091260182309105B9F018F491
:1003F000019739F047C084309105A1F10597B1F11B
:1004000041C0E0912901EF5FE0932901E370F0E042
:10041000E050FF4F80818093280134C00E948A0001
:1004200080912801823031F4809127018F5F809381
:10043000270107C080912701882319F081508093FC
:10044000270180912701893049F466E171E081E05C
:100450000E94BD0085E08093270114C0805D0E944A
:10046000AD0010C08FEF809329010CC0E0912901ED
:10047000EF5FE0932901E370F0E0E050FF4F8081EF
:10048000809328018091280185B9089511B8CFEF94
:10049000C2B9C4B915B8C7B918B8CAB91BB86CE2A3
:1004A00071E080E090E00E946B010E94F1001092E8
:1004B00028011092260110922501C093290185E0A0
:1004C000809327010E9498000E948A008091270152
:1004D000805D0E94AD000E947C01809124018823F0
:0C04E000E1F310922401F7CFF894FFCF55
:1004EC0001020402010000000000000200000000F4
:1004FC00E00000000000596F7520776F6E2100003E
:00000001FF
