:100000000C944E000C946D000C946D000C946D00DB
:100010000C946D000C946D000C946D000C946D00AC
:100020000C946D000C946D000C946D000C946D009C
:100030000C946D000C946D000C946D000C946D008C
:100040000C946D000C946D000C946D000C946D007C
:100050000C946D000C946D000C946D000C946D006C
:100060000C946D000C946D000C946D000C946D005C
:100070000C946D000C946D000C946D000C946D004C
:100080000C946D000C946D000C946D0005010C0136
:1000900033015A018101A801CF01F50111241FBECE
:1000A000CFEFD0E4DEBFCDBF11E0A0E0B1E0EEEED7
:1000B000F4E000E00BBF02C007900D92AE30B10734
:1000C000D9F721E0AEE0B1E001C01D92A231B20744
:1000D000E1F70E944E020C9475020C94000040E07F
:1000E00050E00CC000002F5F3F4F02C020E030E026
:1000F000273063E03607B4F34F5F5F4F4817590767
:10010000ACF308959BB19F7B9BB988B98BB1806894
:100110008BB900008BB18F778BB982E090E00E94A1
:100120006F00089581E00E9482000895813120F4DB
:1001300081580E948200089581550E94820008958E
:1001400084E690E00E946F0088E30E94820086E0CF
:100150000E9482008FE00E94820081E00E94820063
:100160008AE090E00E946F0008959BB190649BB973
:1001700088B98BB180688BB900008BB18F778BB950
:1001800081E090E00E946F000895EF92FF920F933C
:100190001F93CF93DF93182FEB010E9492000EC0A4
:1001A00001E0010F812F0E9496007E018FEFE81A77
:1001B000F80A88810E94B500102FE701888181111B
:1001C000EFCFDF91CF911F910F91FF90EF900895A6
:1001D000CF93C82F8A3019F48DE00E94E8008091F7
:1001E000C00085FFFCCFC093C60080E090E0CF91B7
:1001F0000895E0910F01F0911001E830F10508F049
:1002000019C1EA5BFF4F0C946C0281E090E090937F
:10021000100180930F010EC180910E01811107C062
:1002200081E090E09093100180930F0103C1813031
:1002300039F482E090E09093100180930F01FAC0AE
:10024000823039F484E090E09093100180930F01A4
:10025000F1C0833009F0EEC086E090E09093100189
:1002600080930F01E7C080910E01811107C081E0EA
:1002700090E09093100180930F01DCC0813039F43D
:1002800083E090E09093100180930F01D3C08230FF
:1002900039F484E090E09093100180930F01CAC07C
:1002A000833009F0C7C086E090E0909310018093FE
:1002B0000F01C0C080910E01811107C081E090E064
:1002C0009093100180930F01B5C0813039F483E021
:1002D00090E09093100180930F01ACC0823039F40C
:1002E00084E090E09093100180930F01A3C08330CD
:1002F00009F0A0C086E090E09093100180930F0178
:1003000099C080910E01811107C081E090E0909327
:10031000100180930F018EC0813039F482E090E0AB
:100320009093100180930F0185C0823039F485E0ED
:1003300090E09093100180930F017CC0833009F00E
:1003400079C086E090E09093100180930F0172C015
:1003500080910E01811107C081E090E0909310011F
:1003600080930F0167C0813039F482E090E0909370
:10037000100180930F015EC0823039F485E090E077
:100380009093100180930F0155C0833009F052C043
:1003900086E090E09093100180930F014BC0809114
:1003A0000E01811107C081E090E0909310018093CD
:1003B0000F0140C0813039F482E090E09093100149
:1003C00080930F0137C0823039F484E090E090933D
:1003D000100180930F012EC0833061F587E090E01B
:1003E0009093100180930F0125C080910E0181111F
:1003F00007C081E090E09093100180930F011AC034
:10040000813039F482E090E09093100180930F01E5
:1004100011C0823039F484E090E090931001809311
:100420000F0108C0833031F487E090E09093100111
:1004300080930F0180910F019091100184309105FC
:10044000A1F08630910501F1029739F580911101F3
:10045000893018F48F5F809311010E94920080917F
:100460001101805D0E94B5000895809111018823DB
:1004700019F08150809311010E9492008091110126
:10048000805D0E94B5000895109211010E949200B3
:1004900080911101805D0E94B500089511B88FEF21
:1004A00082B987B918B88AB91BB80E94A0000E9407
:1004B000920080E30E94B50010920E01109211018B
:1004C0001092100110920F0180B18095837080937B
:1004D0000E010E94F900F8CFEE0FFF1F0024001C50
:0E04E0000BBE0790F691E02D0994F894FFCF23
:0E04EE000000000200000000E8000000000016
:00000001FF
