:100000000C944E000C946D000C946D000C946D00DB
:100010000C946D000C946D000C946D000C946D00AC
:100020000C946D000C946D000C946D000C946D009C
:100030000C946D000C946D000C946D000C946D008C
:100040000C946D000C946D000C946D000C946D007C
:100050000C946D000C946D000C946D000C946D006C
:100060000C946D000C946D000C946D000C946D005C
:100070000C946D000C946D000C946D000C946D004C
:100080000C946D000C946D000C946D0014011B0118
:1000900045015501650175018501950111241FBEBA
:1000A000CFEFD0E4DEBFCDBF11E0A0E0B1E0ECE3E4
:1000B000F7E000E00BBF02C007900D92AE32B1072F
:1000C000D9F721E0AEE2B1E001C01D92A733B2073B
:1000D000E1F70E94EB010C949C030C940000CF9379
:1000E000C82F8A3019F48DE00E946F008091C00003
:1000F00085FFFCCFC093C60080E090E0CF910895CB
:10010000CF92DF92EF92FF926B017C0160912E0102
:1001100070912F018091300190913101A7019601DA
:100120000E940802882309F458C020E030E0A901A9
:10013000C701B6010E940802811106C0E1E9F0E0A2
:1001400080818870808305C0E1E9F0E08081836070
:10015000808328E539E344E75FE3C701B6010E94E5
:10016000080288233CF48FEF9FEF909399008093CF
:10017000980027C020E034E244EF56E4C701B601FE
:100180000E942A0318162CF41092990010929800DD
:1001900018C020E030E040E053E4C701B6010E94FF
:1001A0002F039B01AC0160E074E284EF9AE40E94AB
:1001B0000D020E947F026150710970939900609353
:1001C00098001092950010929400C0922E01D09247
:1001D0002F01E0923001F0923101FF90EF90DF901B
:1001E000CF90089580E4809390008BE080939100FD
:1001F00060E070E0CB010E948000089510929000B2
:1002000010929100089580B180958770809332019B
:10021000E0913401F0913501E830F10508F094C027
:10022000EA5BFF4F0C94FF0181E090E09093350171
:100230008093340189C0813039F482E090E090935A
:1002400035018093340180C0823059F4909133019C
:10025000992339F083E090E0909335018093340145
:1002600073C0843059F480913301882339F084E0DD
:1002700090E0909335018093340166C081E090E076
:1002800090933501809334015FC0813039F485E06B
:1002900090E0909335018093340156C081E090E066
:1002A00090933501809334014FC0823039F486E059
:1002B00090E0909335018093340146C081E090E056
:1002C00090933501809334013FC0843039F487E046
:1002D00090E0909335018093340136C081E090E046
:1002E00090933501809334012FC0813039F485E03B
:1002F00090E0909335018093340126C081E090E036
:1003000090933501809334011FC0823039F486E028
:1003100090E0909335018093340116C081E090E025
:1003200090933501809334010FC0843039F487E015
:1003300090E0909335018093340106C081E090E015
:10034000909335018093340180913401909135016F
:100350008230910521F118F4019739F00895833026
:10036000910549F1049779F108958091330188232B
:1003700081F0E0913601F0E0EE0FFF1FEE0FFF1F5E
:10038000E050FF4F60817181828193810E948000E3
:10039000089560E070E0CB010E948000089581E044
:1003A00090913301911180E080933301811112C04B
:1003B00010923601089580913601873058F48F5F8E
:1003C00080933601089580913601882319F0815079
:1003D00080933601089511B88FEF82B984B915B8AA
:1003E0000E94F200109232011092350110923401F5
:1003F00010923301109236010E940301FDCFEE0FDF
:10040000FF1F0024001C0BBE0790F691E02D0994FD
:100410000E94B50208F481E008950E9421020C9424
:10042000F0020E94E90258F00E94E20240F029F432
:100430005F3F29F00C94D90251110C9424030C94C1
:10044000DF020E94010368F39923B1F3552391F36E
:10045000951B550BBB27AA2762177307840738F033
:100460009F5F5F4F220F331F441FAA1FA9F335D090
:100470000E2E3AF0E0E832D091505040E695001C44
:10048000CAF72BD0FE2F29D0660F771F881FBB1FFE
:10049000261737074807AB07B0E809F0BB0B802DDC
:1004A000BF01FF2793585F4F3AF09E3F510578F008
:1004B0000C94D9020C9424035F3FE4F3983ED4F3E8
:1004C000869577956795B795F7959F5FC9F7880FDC
:1004D000911D9695879597F90895E1E0660F771F2E
:1004E000881FBB1F621773078407BA0720F0621BBF
:1004F000730B840BBA0BEE1F88F7E09508950E94EA
:1005000086026894B1110C94240308950E94090393
:1005100088F09F5798F0B92F9927B751B0F0E1F0C4
:10052000660F771F881F991F1AF0BA95C9F714C074
:10053000B13091F00E942303B1E008950C9423039D
:10054000672F782F8827B85F39F0B93FCCF38695AD
:1005500077956795B395D9F73EF49095809570950A
:1005600061957F4F8F4F9F4F0895990F0008550F4A
:10057000AA0BE0E8FEEF16161706E807F907C0F029
:1005800012161306E407F50798F0621B730B840B31
:10059000950B39F40A2661F0232B242B252B21F40B
:1005A00008950A2609F4A140A6958FEF811D811DAB
:1005B000089597F99F6780E870E060E008959FEFE5
:1005C00080EC089500240A941616170618060906EA
:1005D000089500240A9412161306140605060895B9
:1005E000092E0394000C11F4882352F0BB0F40F441
:1005F000BF2B11F460FF04C06F5F7F4F8F4F9F4F81
:10060000089557FD9058440F551F59F05F3F71F002
:100610004795880F97FB991F61F09F3F79F0879569
:100620000895121613061406551FF2CF4695F1DFF2
:1006300008C0161617061806991FF1CF8695710582
:10064000610508940895E894BB2766277727CB01B6
:1006500097F908950E94B50208F48FEF08950E945B
:1006600042030C94F0020E94E20238F00E94E90278
:1006700020F0952311F00C94D9020C94DF02112480
:100680000C9424030E94010370F3959FC1F3950F0E
:1006900050E0551F629FF001729FBB27F00DB11D06
:1006A000639FAA27F00DB11DAA1F649F6627B00D96
:1006B000A11D661F829F2227B00DA11D621F739F7F
:1006C000B00DA11D621F839FA00D611D221F749F8D
:1006D0003327A00D611D231F849F600D211D822FD4
:1006E000762F6A2F11249F5750409AF0F1F08823FB
:1006F0004AF0EE0FFF1FBB1F661F771F881F915028
:100700005040A9F79E3F510580F00C94D9020C94FB
:1007100024035F3FE4F3983ED4F38695779567957D
:10072000B795F795E7959F5FC1F7FE2B880F911D51
:0C0730009695879597F90895F894FFCFEF
:10073C00A4D082437BD49243A4D0A443719DAE43F6
:10074C000000C4430000DC43A4F0F64300D0024494
:0E075C0000000002000000006F00000000001E
:00000001FF
