:100000000C9446000C9465000C9465000C946500FB
:100010000C9465000C9465000C9465000C946500CC
:100020000C9465000C9465000C9465000C946500BC
:100030000C9465000C94A3000C9465000C9465006E
:100040000C9465000C9465000C9465000C9465009C
:100050000C9465000C9465000C9465000C9465008C
:100060000C9465000C9465000C9465000C9465007C
:100070000C9465000C9465000C9465000C9465006C
:100080000C9465000C9465000C94650011241FBE4F
:10009000CFEFD0E4DEBFCDBF11E0A0E0B1E0E0ECF7
:1000A000F3E000E00BBF02C007900D92A431B1074E
:1000B000D9F721E0A4E1B1E001C01D92AC33B20751
:1000C000E1F70E94BF010C94DE010C940000CF9375
:1000D000C82F8A3019F48DE00E9467008091C0001B
:1000E00085FFFCCFC093C60080E090E0CF910895DB
:1000F0008BE0809381008DE790E09093890080935E
:10010000880082E080936F00109285001092840036
:100110008091000190910101A0910201B091030131
:100120008093140190931501A0931601B0931701C9
:100130008FB780688FBF089510928100089581E085
:100140008093180108951F920F920FB60F921124F9
:100150000BB60F922F933F934F935F936F937F93C1
:100160008F939F93AF93BF93EF93FF93809114016D
:1001700090911501A0911601B09117010197A10965
:10018000B1098093140190931501A0931601B093C7
:100190001701892B8A2B8B2B91F40E949F00809151
:1001A000000190910101A0910201B091030180939F
:1001B000140190931501A0931601B0931701FF91BC
:1001C000EF91BF91AF919F918F917F916F915F91CF
:1001D0004F913F912F910F900BBE0F900FBE0F903C
:1001E0001F901895609300017093010180930201A4
:1001F000909303016093140170931501809316018D
:10020000909317010895CF93DF9300D01F92CDB73D
:10021000DEB781E0898382E08A8384E08B838091EA
:10022000350190913601009719F0019741F00DC00A
:1002300081E090E0909336018093350106C081E023
:1002400090E0909336018093350180913501909133
:100250003601009719F0019721F021C01092370163
:100260001EC080913701833011F4109237019091B4
:1002700037018BEA989F812D11248695282F220F14
:10028000820F292F281BE1E0F0E0EC0FFD1FE20FA9
:10029000F11D808180931B019F5F909337010F9028
:1002A0000F900F90DF91CF910895CF93DF9300D0FF
:1002B000CDB7DEB788E089831A8280913A019091A8
:1002C0003B01009719F0019741F00DC081E090E0EB
:1002D00090933B0180933A0106C081E090E09093B7
:1002E0003B0180933A0180913A0190913B01009744
:1002F00019F0019721F01AC010921C0117C08091CB
:100300001C01823011F410921C0180911C01282FD5
:10031000217030E0E1E0F0E0EC0FFD1FE20FF31F91
:10032000908190931A018F5F80931C010F900F9022
:10033000DF91CF9108958091380190913901009714
:1003400019F0019741F00DC081E090E090933901E0
:100350008093380106C081E090E09093390180934A
:1003600038018091380190913901019739F49091C9
:100370001A0180911B01892B8093190108958FEF39
:1003800084B915B868EE73E080E090E00E94F20056
:100390000E94780010923601109235010E9455019A
:1003A0000E9403010E949B01809118018823E1F3C0
:1003B000109218018091190185B9F0CFF894FFCF00
:1003C00001000000000000020000000067000000C3
:0403D0000000020027
:00000001FF
